{
  "_format": "hh-sol-artifact-1",
  "contractName": "PrivateNFT",
  "sourceName": "contracts/PrivateNFT.sol",
  "abi": [
    {
      "inputs": [
        {
          "internalType": "address",
          "name": "initialOwner",
          "type": "address"
        }
      ],
      "stateMutability": "nonpayable",
      "type": "constructor"
    },
    {
      "inputs": [
        {
          "internalType": "address",
          "name": "sender",
          "type": "address"
        },
        {
          "internalType": "uint256",
          "name": "tokenId",
          "type": "uint256"
        },
        {
          "internalType": "address",
          "name": "owner",
          "type": "address"
        }
      ],
      "name": "ERC721IncorrectOwner",
      "type": "error"
    },
    {
      "inputs": [
        {
          "internalType": "address",
          "name": "operator",
          "type": "address"
        },
        {
          "internalType": "uint256",
          "name": "tokenId",
          "type": "uint256"
        }
      ],
      "name": "ERC721InsufficientApproval",
      "type": "error"
    },
    {
      "inputs": [
        {
          "internalType": "address",
          "name": "approver",
          "type": "address"
        }
      ],
      "name": "ERC721InvalidApprover",
      "type": "error"
    },
    {
      "inputs": [
        {
          "internalType": "address",
          "name": "operator",
          "type": "address"
        }
      ],
      "name": "ERC721InvalidOperator",
      "type": "error"
    },
    {
      "inputs": [
        {
          "internalType": "address",
          "name": "owner",
          "type": "address"
        }
      ],
      "name": "ERC721InvalidOwner",
      "type": "error"
    },
    {
      "inputs": [
        {
          "internalType": "address",
          "name": "receiver",
          "type": "address"
        }
      ],
      "name": "ERC721InvalidReceiver",
      "type": "error"
    },
    {
      "inputs": [
        {
          "internalType": "address",
          "name": "sender",
          "type": "address"
        }
      ],
      "name": "ERC721InvalidSender",
      "type": "error"
    },
    {
      "inputs": [
        {
          "internalType": "uint256",
          "name": "tokenId",
          "type": "uint256"
        }
      ],
      "name": "ERC721NonexistentToken",
      "type": "error"
    },
    {
      "inputs": [
        {
          "internalType": "address",
          "name": "owner",
          "type": "address"
        }
      ],
      "name": "OwnableInvalidOwner",
      "type": "error"
    },
    {
      "inputs": [
        {
          "internalType": "address",
          "name": "account",
          "type": "address"
        }
      ],
      "name": "OwnableUnauthorizedAccount",
      "type": "error"
    },
    {
      "anonymous": false,
      "inputs": [
        {
          "indexed": true,
          "internalType": "address",
          "name": "owner",
          "type": "address"
        },
        {
          "indexed": true,
          "internalType": "address",
          "name": "approved",
          "type": "address"
        },
        {
          "indexed": true,
          "internalType": "uint256",
          "name": "tokenId",
          "type": "uint256"
        }
      ],
      "name": "Approval",
      "type": "event"
    },
    {
      "anonymous": false,
      "inputs": [
        {
          "indexed": true,
          "internalType": "address",
          "name": "owner",
          "type": "address"
        },
        {
          "indexed": true,
          "internalType": "address",
          "name": "operator",
          "type": "address"
        },
        {
          "indexed": false,
          "internalType": "bool",
          "name": "approved",
          "type": "bool"
        }
      ],
      "name": "ApprovalForAll",
      "type": "event"
    },
    {
      "anonymous": false,
      "inputs": [
        {
          "indexed": true,
          "internalType": "address",
          "name": "previousOwner",
          "type": "address"
        },
        {
          "indexed": true,
          "internalType": "address",
          "name": "newOwner",
          "type": "address"
        }
      ],
      "name": "OwnershipTransferred",
      "type": "event"
    },
    {
      "anonymous": false,
      "inputs": [
        {
          "indexed": true,
          "internalType": "address",
          "name": "from",
          "type": "address"
        },
        {
          "indexed": true,
          "internalType": "address",
          "name": "to",
          "type": "address"
        },
        {
          "indexed": true,
          "internalType": "uint256",
          "name": "tokenId",
          "type": "uint256"
        }
      ],
      "name": "Transfer",
      "type": "event"
    },
    {
      "inputs": [
        {
          "internalType": "address",
          "name": "to",
          "type": "address"
        },
        {
          "internalType": "uint256",
          "name": "tokenId",
          "type": "uint256"
        }
      ],
      "name": "approve",
      "outputs": [],
      "stateMutability": "nonpayable",
      "type": "function"
    },
    {
      "inputs": [
        {
          "internalType": "address",
          "name": "owner",
          "type": "address"
        }
      ],
      "name": "balanceOf",
      "outputs": [
        {
          "internalType": "uint256",
          "name": "",
          "type": "uint256"
        }
      ],
      "stateMutability": "view",
      "type": "function"
    },
    {
      "inputs": [
        {
          "internalType": "uint256",
          "name": "tokenId",
          "type": "uint256"
        }
      ],
      "name": "burn",
      "outputs": [],
      "stateMutability": "nonpayable",
      "type": "function"
    },
    {
      "inputs": [
        {
          "internalType": "uint256",
          "name": "tokenId",
          "type": "uint256"
        }
      ],
      "name": "getApproved",
      "outputs": [
        {
          "internalType": "address",
          "name": "",
          "type": "address"
        }
      ],
      "stateMutability": "view",
      "type": "function"
    },
    {
      "inputs": [
        {
          "internalType": "address",
          "name": "owner",
          "type": "address"
        },
        {
          "internalType": "address",
          "name": "operator",
          "type": "address"
        }
      ],
      "name": "isApprovedForAll",
      "outputs": [
        {
          "internalType": "bool",
          "name": "",
          "type": "bool"
        }
      ],
      "stateMutability": "view",
      "type": "function"
    },
    {
      "inputs": [],
      "name": "name",
      "outputs": [
        {
          "internalType": "string",
          "name": "",
          "type": "string"
        }
      ],
      "stateMutability": "view",
      "type": "function"
    },
    {
      "inputs": [],
      "name": "owner",
      "outputs": [
        {
          "internalType": "address",
          "name": "",
          "type": "address"
        }
      ],
      "stateMutability": "view",
      "type": "function"
    },
    {
      "inputs": [
        {
          "internalType": "uint256",
          "name": "tokenId",
          "type": "uint256"
        }
      ],
      "name": "ownerOf",
      "outputs": [
        {
          "internalType": "address",
          "name": "",
          "type": "address"
        }
      ],
      "stateMutability": "view",
      "type": "function"
    },
    {
      "inputs": [],
      "name": "renounceOwnership",
      "outputs": [],
      "stateMutability": "nonpayable",
      "type": "function"
    },
    {
      "inputs": [
        {
          "internalType": "address",
          "name": "to",
          "type": "address"
        },
        {
          "internalType": "uint256",
          "name": "tokenId",
          "type": "uint256"
        }
      ],
      "name": "safeMint",
      "outputs": [],
      "stateMutability": "nonpayable",
      "type": "function"
    },
    {
      "inputs": [
        {
          "internalType": "address",
          "name": "from",
          "type": "address"
        },
        {
          "internalType": "address",
          "name": "to",
          "type": "address"
        },
        {
          "internalType": "uint256",
          "name": "tokenId",
          "type": "uint256"
        }
      ],
      "name": "safeTransferFrom",
      "outputs": [],
      "stateMutability": "nonpayable",
      "type": "function"
    },
    {
      "inputs": [
        {
          "internalType": "address",
          "name": "from",
          "type": "address"
        },
        {
          "internalType": "address",
          "name": "to",
          "type": "address"
        },
        {
          "internalType": "uint256",
          "name": "tokenId",
          "type": "uint256"
        },
        {
          "internalType": "bytes",
          "name": "data",
          "type": "bytes"
        }
      ],
      "name": "safeTransferFrom",
      "outputs": [],
      "stateMutability": "nonpayable",
      "type": "function"
    },
    {
      "inputs": [
        {
          "internalType": "address",
          "name": "operator",
          "type": "address"
        },
        {
          "internalType": "bool",
          "name": "approved",
          "type": "bool"
        }
      ],
      "name": "setApprovalForAll",
      "outputs": [],
      "stateMutability": "nonpayable",
      "type": "function"
    },
    {
      "inputs": [
        {
          "internalType": "bytes4",
          "name": "interfaceId",
          "type": "bytes4"
        }
      ],
      "name": "supportsInterface",
      "outputs": [
        {
          "internalType": "bool",
          "name": "",
          "type": "bool"
        }
      ],
      "stateMutability": "view",
      "type": "function"
    },
    {
      "inputs": [],
      "name": "symbol",
      "outputs": [
        {
          "internalType": "string",
          "name": "",
          "type": "string"
        }
      ],
      "stateMutability": "view",
      "type": "function"
    },
    {
      "inputs": [
        {
          "internalType": "uint256",
          "name": "tokenId",
          "type": "uint256"
        }
      ],
      "name": "tokenURI",
      "outputs": [
        {
          "internalType": "string",
          "name": "",
          "type": "string"
        }
      ],
      "stateMutability": "view",
      "type": "function"
    },
    {
      "inputs": [
        {
          "internalType": "address",
          "name": "from",
          "type": "address"
        },
        {
          "internalType": "address",
          "name": "to",
          "type": "address"
        },
        {
          "internalType": "uint256",
          "name": "tokenId",
          "type": "uint256"
        }
      ],
      "name": "transferFrom",
      "outputs": [],
      "stateMutability": "nonpayable",
      "type": "function"
    },
    {
      "inputs": [
        {
          "internalType": "address",
          "name": "newOwner",
          "type": "address"
        }
      ],
      "name": "transferOwnership",
      "outputs": [],
      "stateMutability": "nonpayable",
      "type": "function"
    }
  ],
  "bytecode": "0x60806040523480156200001157600080fd5b506040516200290838038062002908833981810160405281019062000037919062000288565b806040518060400160405280600381526020017f6d616100000000000000000000000000000000000000000000000000000000008152506040518060400160405280600381526020017f6d6d6d00000000000000000000000000000000000000000000000000000000008152508160009081620000b5919062000534565b508060019081620000c7919062000534565b505050600073ffffffffffffffffffffffffffffffffffffffff168173ffffffffffffffffffffffffffffffffffffffff16036200013f5760006040517f1e4fbdf70000000000000000000000000000000000000000000000000000000081526004016200013691906200062c565b60405180910390fd5b62000150816200015860201b60201c565b505062000649565b6000600660009054906101000a900473ffffffffffffffffffffffffffffffffffffffff16905081600660006101000a81548173ffffffffffffffffffffffffffffffffffffffff021916908373ffffffffffffffffffffffffffffffffffffffff1602179055508173ffffffffffffffffffffffffffffffffffffffff168173ffffffffffffffffffffffffffffffffffffffff167f8be0079c531659141344cd1fd0a4f28419497f9722a3daafe3b4186f6b6457e060405160405180910390a35050565b600080fd5b600073ffffffffffffffffffffffffffffffffffffffff82169050919050565b6000620002508262000223565b9050919050565b620002628162000243565b81146200026e57600080fd5b50565b600081519050620002828162000257565b92915050565b600060208284031215620002a157620002a06200021e565b5b6000620002b18482850162000271565b91505092915050565b600081519050919050565b7f4e487b7100000000000000000000000000000000000000000000000000000000600052604160045260246000fd5b7f4e487b7100000000000000000000000000000000000000000000000000000000600052602260045260246000fd5b600060028204905060018216806200033c57607f821691505b602082108103620003525762000351620002f4565b5b50919050565b60008190508160005260206000209050919050565b60006020601f8301049050919050565b600082821b905092915050565b600060088302620003bc7fffffffffffffffffffffffffffffffffffffffffffffffffffffffffffffffff826200037d565b620003c886836200037d565b95508019841693508086168417925050509392505050565b6000819050919050565b6000819050919050565b6000620004156200040f6200040984620003e0565b620003ea565b620003e0565b9050919050565b6000819050919050565b6200043183620003f4565b6200044962000440826200041c565b8484546200038a565b825550505050565b600090565b6200046062000451565b6200046d81848462000426565b505050565b5b8181101562000495576200048960008262000456565b60018101905062000473565b5050565b601f821115620004e457620004ae8162000358565b620004b9846200036d565b81016020851015620004c9578190505b620004e1620004d8856200036d565b83018262000472565b50505b505050565b600082821c905092915050565b60006200050960001984600802620004e9565b1980831691505092915050565b6000620005248383620004f6565b9150826002028217905092915050565b6200053f82620002ba565b67ffffffffffffffff8111156200055b576200055a620002c5565b5b62000567825462000323565b6200057482828562000499565b600060209050601f831160018114620005ac576000841562000597578287015190505b620005a3858262000516565b86555062000613565b601f198416620005bc8662000358565b60005b82811015620005e657848901518255600182019150602085019450602081019050620005bf565b8683101562000606578489015162000602601f891682620004f6565b8355505b6001600288020188555050505b505050505050565b620006268162000243565b82525050565b60006020820190506200064360008301846200061b565b92915050565b6122af80620006596000396000f3fe608060405234801561001057600080fd5b50600436106101165760003560e01c8063715018a6116100a2578063a22cb46511610071578063a22cb465146102cb578063b88d4fde146102e7578063c87b56dd14610303578063e985e9c514610333578063f2fde38b1461036357610116565b8063715018a6146102695780638da5cb5b1461027357806395d89b4114610291578063a1448194146102af57610116565b806323b872dd116100e957806323b872dd146101b557806342842e0e146101d157806342966c68146101ed5780636352211e1461020957806370a082311461023957610116565b806301ffc9a71461011b57806306fdde031461014b578063081812fc14610169578063095ea7b314610199575b600080fd5b61013560048036038101906101309190611a8d565b61037f565b6040516101429190611ad5565b60405180910390f35b610153610461565b6040516101609190611b80565b60405180910390f35b610183600480360381019061017e9190611bd8565b6104f3565b6040516101909190611c46565b60405180910390f35b6101b360048036038101906101ae9190611c8d565b61050f565b005b6101cf60048036038101906101ca9190611ccd565b610525565b005b6101eb60048036038101906101e69190611ccd565b610627565b005b61020760048036038101906102029190611bd8565b610647565b005b610223600480360381019061021e9190611bd8565b61065e565b6040516102309190611c46565b60405180910390f35b610253600480360381019061024e9190611d20565b6106e3565b6040516102609190611d5c565b60405180910390f35b610271610763565b005b61027b610777565b6040516102889190611c46565b60405180910390f35b6102996107a1565b6040516102a69190611b80565b60405180910390f35b6102c960048036038101906102c49190611c8d565b610833565b005b6102e560048036038101906102e09190611da3565b610849565b005b61030160048036038101906102fc9190611f18565b61085f565b005b61031d60048036038101906103189190611bd8565b61087c565b60405161032a9190611b80565b60405180910390f35b61034d60048036038101906103489190611f9b565b61090a565b60405161035a9190611ad5565b60405180910390f35b61037d60048036038101906103789190611d20565b61099e565b005b60007f80ac58cd000000000000000000000000000000000000000000000000000000007bffffffffffffffffffffffffffffffffffffffffffffffffffffffff1916827bffffffffffffffffffffffffffffffffffffffffffffffffffffffff1916148061044a57507f5b5e139f000000000000000000000000000000000000000000000000000000007bffffffffffffffffffffffffffffffffffffffffffffffffffffffff1916827bffffffffffffffffffffffffffffffffffffffffffffffffffffffff1916145b8061045a575061045982610a24565b5b9050919050565b6060600080546104709061200a565b80601f016020809104026020016040519081016040528092919081815260200182805461049c9061200a565b80156104e95780601f106104be576101008083540402835291602001916104e9565b820191906000526020600020905b8154815290600101906020018083116104cc57829003601f168201915b5050505050905090565b60006104fe82610a8e565b5061050882610b16565b9050919050565b610521828261051c610b53565b610b5b565b5050565b600073ffffffffffffffffffffffffffffffffffffffff168273ffffffffffffffffffffffffffffffffffffffff16036105975760006040517f64a0ae9200000000000000000000000000000000000000000000000000000000815260040161058e9190611c46565b60405180910390fd5b60006105ab83836105a6610b53565b610b6d565b90508373ffffffffffffffffffffffffffffffffffffffff168173ffffffffffffffffffffffffffffffffffffffff1614610621578382826040517f64283d7b0000000000000000000000000000000000000000000000000000000081526004016106189392919061203b565b60405180910390fd5b50505050565b6106428383836040518060200160405280600081525061085f565b505050565b61065a600082610655610b53565b610b6d565b5050565b60008061066a83610d87565b90508073ffffffffffffffffffffffffffffffffffffffff163373ffffffffffffffffffffffffffffffffffffffff16146106da576040517f08c379a00000000000000000000000000000000000000000000000000000000081526004016106d1906120be565b60405180910390fd5b80915050919050565b60008173ffffffffffffffffffffffffffffffffffffffff163373ffffffffffffffffffffffffffffffffffffffff1614610753576040517f08c379a000000000000000000000000000000000000000000000000000000000815260040161074a906120be565b60405180910390fd5b61075c82610d99565b9050919050565b61076b610e53565b6107756000610eda565b565b6000600660009054906101000a900473ffffffffffffffffffffffffffffffffffffffff16905090565b6060600180546107b09061200a565b80601f01602080910402602001604051908101604052809291908181526020018280546107dc9061200a565b80156108295780601f106107fe57610100808354040283529160200191610829565b820191906000526020600020905b81548152906001019060200180831161080c57829003601f168201915b5050505050905090565b61083b610e53565b6108458282610fa0565b5050565b61085b610854610b53565b8383610fbe565b5050565b61086a848484610525565b6108768484848461112d565b50505050565b6060600061088983610d87565b90508073ffffffffffffffffffffffffffffffffffffffff163373ffffffffffffffffffffffffffffffffffffffff16146108f9576040517f08c379a00000000000000000000000000000000000000000000000000000000081526004016108f0906120be565b60405180910390fd5b610902836112e4565b915050919050565b6000600560008473ffffffffffffffffffffffffffffffffffffffff1673ffffffffffffffffffffffffffffffffffffffff16815260200190815260200160002060008373ffffffffffffffffffffffffffffffffffffffff1673ffffffffffffffffffffffffffffffffffffffff16815260200190815260200160002060009054906101000a900460ff16905092915050565b6109a6610e53565b600073ffffffffffffffffffffffffffffffffffffffff168173ffffffffffffffffffffffffffffffffffffffff1603610a185760006040517f1e4fbdf7000000000000000000000000000000000000000000000000000000008152600401610a0f9190611c46565b60405180910390fd5b610a2181610eda565b50565b60007f01ffc9a7000000000000000000000000000000000000000000000000000000007bffffffffffffffffffffffffffffffffffffffffffffffffffffffff1916827bffffffffffffffffffffffffffffffffffffffffffffffffffffffff1916149050919050565b600080610a9a8361134d565b9050600073ffffffffffffffffffffffffffffffffffffffff168173ffffffffffffffffffffffffffffffffffffffff1603610b0d57826040517f7e273289000000000000000000000000000000000000000000000000000000008152600401610b049190611d5c565b60405180910390fd5b80915050919050565b60006004600083815260200190815260200160002060009054906101000a900473ffffffffffffffffffffffffffffffffffffffff169050919050565b600033905090565b610b68838383600161138a565b505050565b600080610b798461134d565b9050600073ffffffffffffffffffffffffffffffffffffffff168373ffffffffffffffffffffffffffffffffffffffff1614610bbb57610bba81848661154f565b5b600073ffffffffffffffffffffffffffffffffffffffff168173ffffffffffffffffffffffffffffffffffffffff1614610c4c57610bfd60008560008061138a565b6001600360008373ffffffffffffffffffffffffffffffffffffffff1673ffffffffffffffffffffffffffffffffffffffff168152602001908152602001600020600082825403925050819055505b600073ffffffffffffffffffffffffffffffffffffffff168573ffffffffffffffffffffffffffffffffffffffff1614610ccf576001600360008773ffffffffffffffffffffffffffffffffffffffff1673ffffffffffffffffffffffffffffffffffffffff168152602001908152602001600020600082825401925050819055505b846002600086815260200190815260200160002060006101000a81548173ffffffffffffffffffffffffffffffffffffffff021916908373ffffffffffffffffffffffffffffffffffffffff160217905550838573ffffffffffffffffffffffffffffffffffffffff168273ffffffffffffffffffffffffffffffffffffffff167fddf252ad1be2c89b69c2b068fc378daa952ba7f163c4a11628f55a4df523b3ef60405160405180910390a4809150509392505050565b6000610d9282610a8e565b9050919050565b60008073ffffffffffffffffffffffffffffffffffffffff168273ffffffffffffffffffffffffffffffffffffffff1603610e0c5760006040517f89c62b64000000000000000000000000000000000000000000000000000000008152600401610e039190611c46565b60405180910390fd5b600360008373ffffffffffffffffffffffffffffffffffffffff1673ffffffffffffffffffffffffffffffffffffffff168152602001908152602001600020549050919050565b610e5b610b53565b73ffffffffffffffffffffffffffffffffffffffff16610e79610777565b73ffffffffffffffffffffffffffffffffffffffff1614610ed857610e9c610b53565b6040517f118cdaa7000000000000000000000000000000000000000000000000000000008152600401610ecf9190611c46565b60405180910390fd5b565b6000600660009054906101000a900473ffffffffffffffffffffffffffffffffffffffff16905081600660006101000a81548173ffffffffffffffffffffffffffffffffffffffff021916908373ffffffffffffffffffffffffffffffffffffffff1602179055508173ffffffffffffffffffffffffffffffffffffffff168173ffffffffffffffffffffffffffffffffffffffff167f8be0079c531659141344cd1fd0a4f28419497f9722a3daafe3b4186f6b6457e060405160405180910390a35050565b610fba828260405180602001604052806000815250611613565b5050565b600073ffffffffffffffffffffffffffffffffffffffff168273ffffffffffffffffffffffffffffffffffffffff160361102f57816040517f5b08ba180000000000000000000000000000000000000000000000000000000081526004016110269190611c46565b60405180910390fd5b80600560008573ffffffffffffffffffffffffffffffffffffffff1673ffffffffffffffffffffffffffffffffffffffff16815260200190815260200160002060008473ffffffffffffffffffffffffffffffffffffffff1673ffffffffffffffffffffffffffffffffffffffff16815260200190815260200160002060006101000a81548160ff0219169083151502179055508173ffffffffffffffffffffffffffffffffffffffff168373ffffffffffffffffffffffffffffffffffffffff167f17307eab39ab6107e8899845ad3d59bd9653f200f220920489ca2b5937696c31836040516111209190611ad5565b60405180910390a3505050565b60008373ffffffffffffffffffffffffffffffffffffffff163b11156112de578273ffffffffffffffffffffffffffffffffffffffff1663150b7a02611171610b53565b8685856040518563ffffffff1660e01b81526004016111939493929190612133565b6020604051808303816000875af19250505080156111cf57506040513d601f19601f820116820180604052508101906111cc9190612194565b60015b611253573d80600081146111ff576040519150601f19603f3d011682016040523d82523d6000602084013e611204565b606091505b50600081510361124b57836040517f64a0ae920000000000000000000000000000000000000000000000000000000081526004016112429190611c46565b60405180910390fd5b805181602001fd5b63150b7a0260e01b7bffffffffffffffffffffffffffffffffffffffffffffffffffffffff1916817bffffffffffffffffffffffffffffffffffffffffffffffffffffffff1916146112dc57836040517f64a0ae920000000000000000000000000000000000000000000000000000000081526004016112d39190611c46565b60405180910390fd5b505b50505050565b60606112ef82610a8e565b5060006112fa61162f565b9050600081511161131a5760405180602001604052806000815250611345565b8061132484611646565b6040516020016113359291906121fd565b6040516020818303038152906040525b915050919050565b60006002600083815260200190815260200160002060009054906101000a900473ffffffffffffffffffffffffffffffffffffffff169050919050565b80806113c35750600073ffffffffffffffffffffffffffffffffffffffff168273ffffffffffffffffffffffffffffffffffffffff1614155b156114f75760006113d384610a8e565b9050600073ffffffffffffffffffffffffffffffffffffffff168373ffffffffffffffffffffffffffffffffffffffff161415801561143e57508273ffffffffffffffffffffffffffffffffffffffff168173ffffffffffffffffffffffffffffffffffffffff1614155b8015611451575061144f818461090a565b155b1561149357826040517fa9fbf51f00000000000000000000000000000000000000000000000000000000815260040161148a9190611c46565b60405180910390fd5b81156114f557838573ffffffffffffffffffffffffffffffffffffffff168273ffffffffffffffffffffffffffffffffffffffff167f8c5be1e5ebec7d5bd14f71427d1e84f3dd0314c0f7b2291e5b200ac8c7c3b92560405160405180910390a45b505b836004600085815260200190815260200160002060006101000a81548173ffffffffffffffffffffffffffffffffffffffff021916908373ffffffffffffffffffffffffffffffffffffffff16021790555050505050565b61155a838383611714565b61160e57600073ffffffffffffffffffffffffffffffffffffffff168373ffffffffffffffffffffffffffffffffffffffff16036115cf57806040517f7e2732890000000000000000000000000000000000000000000000000000000081526004016115c69190611d5c565b60405180910390fd5b81816040517f177e802f000000000000000000000000000000000000000000000000000000008152600401611605929190612221565b60405180910390fd5b505050565b61161d83836117d5565b61162a600084848461112d565b505050565b606060405180602001604052806000815250905090565b606060006001611655846118ce565b01905060008167ffffffffffffffff81111561167457611673611ded565b5b6040519080825280601f01601f1916602001820160405280156116a65781602001600182028036833780820191505090505b509050600082602001820190505b600115611709578080600190039150507f3031323334353637383961626364656600000000000000000000000000000000600a86061a8153600a85816116fd576116fc61224a565b5b049450600085036116b4575b819350505050919050565b60008073ffffffffffffffffffffffffffffffffffffffff168373ffffffffffffffffffffffffffffffffffffffff16141580156117cc57508273ffffffffffffffffffffffffffffffffffffffff168473ffffffffffffffffffffffffffffffffffffffff16148061178d575061178c848461090a565b5b806117cb57508273ffffffffffffffffffffffffffffffffffffffff166117b383610b16565b73ffffffffffffffffffffffffffffffffffffffff16145b5b90509392505050565b600073ffffffffffffffffffffffffffffffffffffffff168273ffffffffffffffffffffffffffffffffffffffff16036118475760006040517f64a0ae9200000000000000000000000000000000000000000000000000000000815260040161183e9190611c46565b60405180910390fd5b600061185583836000610b6d565b9050600073ffffffffffffffffffffffffffffffffffffffff168173ffffffffffffffffffffffffffffffffffffffff16146118c95760006040517f73c6ac6e0000000000000000000000000000000000000000000000000000000081526004016118c09190611c46565b60405180910390fd5b505050565b600080600090507a184f03e93ff9f4daa797ed6e38ed64bf6a1f010000000000000000831061192c577a184f03e93ff9f4daa797ed6e38ed64bf6a1f01000000000000000083816119225761192161224a565b5b0492506040810190505b6d04ee2d6d415b85acef81000000008310611969576d04ee2d6d415b85acef8100000000838161195f5761195e61224a565b5b0492506020810190505b662386f26fc10000831061199857662386f26fc10000838161198e5761198d61224a565b5b0492506010810190505b6305f5e10083106119c1576305f5e10083816119b7576119b661224a565b5b0492506008810190505b61271083106119e65761271083816119dc576119db61224a565b5b0492506004810190505b60648310611a0957606483816119ff576119fe61224a565b5b0492506002810190505b600a8310611a18576001810190505b80915050919050565b6000604051905090565b600080fd5b600080fd5b60007fffffffff0000000000000000000000000000000000000000000000000000000082169050919050565b611a6a81611a35565b8114611a7557600080fd5b50565b600081359050611a8781611a61565b92915050565b600060208284031215611aa357611aa2611a2b565b5b6000611ab184828501611a78565b91505092915050565b60008115159050919050565b611acf81611aba565b82525050565b6000602082019050611aea6000830184611ac6565b92915050565b600081519050919050565b600082825260208201905092915050565b60005b83811015611b2a578082015181840152602081019050611b0f565b60008484015250505050565b6000601f19601f8301169050919050565b6000611b5282611af0565b611b5c8185611afb565b9350611b6c818560208601611b0c565b611b7581611b36565b840191505092915050565b60006020820190508181036000830152611b9a8184611b47565b905092915050565b6000819050919050565b611bb581611ba2565b8114611bc057600080fd5b50565b600081359050611bd281611bac565b92915050565b600060208284031215611bee57611bed611a2b565b5b6000611bfc84828501611bc3565b91505092915050565b600073ffffffffffffffffffffffffffffffffffffffff82169050919050565b6000611c3082611c05565b9050919050565b611c4081611c25565b82525050565b6000602082019050611c5b6000830184611c37565b92915050565b611c6a81611c25565b8114611c7557600080fd5b50565b600081359050611c8781611c61565b92915050565b60008060408385031215611ca457611ca3611a2b565b5b6000611cb285828601611c78565b9250506020611cc385828601611bc3565b9150509250929050565b600080600060608486031215611ce657611ce5611a2b565b5b6000611cf486828701611c78565b9350506020611d0586828701611c78565b9250506040611d1686828701611bc3565b9150509250925092565b600060208284031215611d3657611d35611a2b565b5b6000611d4484828501611c78565b91505092915050565b611d5681611ba2565b82525050565b6000602082019050611d716000830184611d4d565b92915050565b611d8081611aba565b8114611d8b57600080fd5b50565b600081359050611d9d81611d77565b92915050565b60008060408385031215611dba57611db9611a2b565b5b6000611dc885828601611c78565b9250506020611dd985828601611d8e565b9150509250929050565b600080fd5b600080fd5b7f4e487b7100000000000000000000000000000000000000000000000000000000600052604160045260246000fd5b611e2582611b36565b810181811067ffffffffffffffff82111715611e4457611e43611ded565b5b80604052505050565b6000611e57611a21565b9050611e638282611e1c565b919050565b600067ffffffffffffffff821115611e8357611e82611ded565b5b611e8c82611b36565b9050602081019050919050565b82818337600083830152505050565b6000611ebb611eb684611e68565b611e4d565b905082815260208101848484011115611ed757611ed6611de8565b5b611ee2848285611e99565b509392505050565b600082601f830112611eff57611efe611de3565b5b8135611f0f848260208601611ea8565b91505092915050565b60008060008060808587031215611f3257611f31611a2b565b5b6000611f4087828801611c78565b9450506020611f5187828801611c78565b9350506040611f6287828801611bc3565b925050606085013567ffffffffffffffff811115611f8357611f82611a30565b5b611f8f87828801611eea565b91505092959194509250565b60008060408385031215611fb257611fb1611a2b565b5b6000611fc085828601611c78565b9250506020611fd185828601611c78565b9150509250929050565b7f4e487b7100000000000000000000000000000000000000000000000000000000600052602260045260246000fd5b6000600282049050600182168061202257607f821691505b60208210810361203557612034611fdb565b5b50919050565b60006060820190506120506000830186611c37565b61205d6020830185611d4d565b61206a6040830184611c37565b949350505050565b7f507269766174654e46543a206d73672e73656e64657220213d206f776e657200600082015250565b60006120a8601f83611afb565b91506120b382612072565b602082019050919050565b600060208201905081810360008301526120d78161209b565b9050919050565b600081519050919050565b600082825260208201905092915050565b6000612105826120de565b61210f81856120e9565b935061211f818560208601611b0c565b61212881611b36565b840191505092915050565b60006080820190506121486000830187611c37565b6121556020830186611c37565b6121626040830185611d4d565b818103606083015261217481846120fa565b905095945050505050565b60008151905061218e81611a61565b92915050565b6000602082840312156121aa576121a9611a2b565b5b60006121b88482850161217f565b91505092915050565b600081905092915050565b60006121d782611af0565b6121e181856121c1565b93506121f1818560208601611b0c565b80840191505092915050565b600061220982856121cc565b915061221582846121cc565b91508190509392505050565b60006040820190506122366000830185611c37565b6122436020830184611d4d565b9392505050565b7f4e487b7100000000000000000000000000000000000000000000000000000000600052601260045260246000fdfea2646970667358221220a1dfcd5e3a4410faa2f1b70fd060cda4db6ffee52bf88444f3c3560487491adc64736f6c63430008140033",
  "linkReferences": {},
  "deployedLinkReferences": {}
}